S014000053414D4537305F464F4E54532E737265639A
S214400000D0284020D5294000852A4000852A400037
S214400010852A4000852A4000852A400000000000CE
S214400020000000000000000000000000852A40009C
S214400030852A400000000000852A4000852A4000AE
S214400040852A4000852A4000852A4000852A4000AF
S214400050852A4000852A4000852A4000852A40009F
S214400060852A4000000000008D214000A521400068
S214400070BD214000852A4000852A4000852A400050
S214400080D5214000ED214000852A4000852A4000C9
S214400090852A4000852A4000852A40000505400004
S2144000A0852A4000852A4000852A4000852A40004F
S2144000B0852A4000852A4000852A4000852A40003F
S2144000C0852A4000852A4000852A4000852A40002F
S2144000D0852A4000852A4000852A4000852A40001F
S2144000E0852A4000852A4000852A4000852A40000F
S2144000F0852A4000852A4000852A4000852A4000FF
S214400100852A4000852A4000852A4000852A4000EE
S214400110852A4000000000000000000000000000AB
S214400120852A4000852A4000852A4000852A4000CE
S214400130852A4000852A4000852A4000852A4000BE
S214400140852A4000852A4000852A4000852A4000AE
S214400150852A4000852A4000852A4000852A40009E
S214400160852A4000852A400010B5054C237833B9CF
S214400170044B13B10448AFF300800123237010BD35
S2144001803C044020000000003C2E40000C4B43B195
S2144001900C480D4910B5AFF300800C48036823B9EE
S2144001A010BD0A48036833B97047094B002BF7D097
S2144001B0BDE810401847064B002BF5D0184700BF47
S2144001C0000000003C2E4000400440203C2E4000F2
S2144001D00000000080B487B000AFF860B9607A6075
S2144001E0FA68BB689B0113447B617B6902221A60F4
S2144001F07B694FF0FF329A627B691B6A7B697A683B
S2144002005A6000BF1C37BD465DF8047B704780B41B
S21440021083B000AF786039607A683B689B011344CE
S21440022005221A6000BF0C37BD465DF8047B704758
S21440023080B485B000AFF860B9607A60FA68BB6891
S2144002409B0113441C337A681A6000BF1437BD46BE
S2144002505DF8047B704780B487B000AFF860B96043
S2144002607A60FA68BB689B0113447B617B697A6855
S2144002705A6200BF1C37BD465DF8047B704780B4A9
S21440028085B000AF786039607A683B689B0113445C
S214400290FB60FB681B6A18461437BD465DF8047B56
S2144002A0704780B48DB000AFF860B9607A603B604C
S2144002B002233B6108237B612023BB618023FB61D3
S2144002C0BB6BDB0B3B620023FB621AE0FB6A9B00C6
S2144002D007F13002134453F8203CBA68B2FBF3F3FC
S2144002E0BB62BB6A1B0C7B62FA68BB6A9A4201D946
S2144002F0002323E0FA687B6A9A4206D2FB6A0133FF
S214400300FB62FB6A042BE1D900E000BFFB6A042BCA
S21440031001D9002312E07B68002B08D0FB6A9B00C3
S21440032007F13002134453F8202C7B681A603B6870
S214400330002B02D03B68FA6A1A600123184634370D
S214400340BD465DF8047B704780B483B000AF03467B
S214400350FB71094997F907305B09FA7902F01F02E9
S214400360012000FA02F241F8232000BF0C37BD46B8
S2144003705DF8047B704700BF00E100E080B483B0C6
S21440038000AF03463960FB7197F90730002B0BDA54
S2144003900D49FB7903F00F03043B3A68D2B2520191
S2144003A0D2B20B441A7609E0084997F907303A6802
S2144003B0D2B25201D2B20B4483F8002300BF0C37AE
S2144003C0BD465DF8047B704700ED00E000E100E0CC
S2144003D080B483B000AF78607B68072B25D801A235
S2144003E052F823F0050440000B044000110440007E
S2144003F0170440001B0440001F0440002304400034
S214400400270440004FF4FA4310E04FF400430DE059
S2144004104FF400430AE0084B08E0084B06E0084B60
S21440042004E0074B02E0064B00E0002318460C377A
S214400430BD465DF8047B704700093D0000127A0017
S214400440001BB70080B500AF0620054B9847024614
S21440045013469B0013449A001344184680BD00BFC1
S214400460D103400080B500AF024B9847034618467C
S21440047080BD00BF4504400080B400AF054B1B78EC
S214400480DBB20133DAB2034B1A7000BFBD465DF8EB
S214400490047B70475804402090B583B002AF0A20D2
S2144004A0104B984709224FF400610F480F4B98476E
S2144004B04FF400610C480E4B98470E4B0093502368
S2144004C04FF400620A2108480B4CA0470A200B4B09
S2144004D0984701210A200A4B984700BF0437BD467B
S2144004E090BD00BFC9244000000E0E405D1E400077
S2144004F0491F400079044000ED2040004903400079
S2144005007D03400080B582B000AF00210448054B13
S214400510984703467B607B6800BF0837BD4680BD72
S21440052000C000407F02400090B58BB002AFF8603C
S214400530B9607A603B601E4B9847F8610123BB6107
S214400540BB6818461B4B9847386807F1100107F1FF
S2144005501402FB6900930B46F969174CA04779686B
S2144005603B6943F480431A46F868144B98477968C9
S2144005707B69FA69B2FBF3F23B68B2FBF3F31A46C7
S214400580F8680F4B9847BB685BB218460D4B9847C8
S2144005907B6810221946F8680B4B98477B681946CB
S2144005A0F8680A4B984700BF2437BD4690BD00BF49
S2144005B065044000C9244000A3024000D501400025
S2144005C03102400049034000570240000F024000FD
S2144005D098B500AF0D4B4FF4A0721A600B4B4FF41A
S2144005E0F0725A60094B0A4A9A60084B084ADA6029
S2144005F00648084B984740F2DF1340F23F1200216E
S2144006000020054CA04700BF98BD00BF980840207A
S214400610FCFCFC00410F40008D11400098B500AF37
S2144006200A4B98470A4B98470A4B98470A4B4FF451
S21440063000425A60094B9847012300221721084878
S214400640084CA0470220084B9847FBE7891D40000E
S21440065055194000D105400050180E4099044000FE
S21440066000C0004029054000B525400080B483B056
S21440067000AF78607B68072B25D801A252F823F09C
S214400680A1064000A7064000AD064000B306400065
S214400690B7064000BB064000BF064000C306400009
S2144006A04FF4FA4310E04FF400430DE04FF400439C
S2144006B00AE0084B08E0084B06E0084B04E0074B0E
S2144006C002E0064B00E0002318460C37BD465DF8B6
S2144006D0047B704700093D0000127A00001BB700FB
S2144006E080B500AF0620054B9847024613469B0050
S2144006F013449A001344184680BD00BF6D06400060
S21440070080B500AF024B984703465B08184680BD4D
S214400710E106400080B483B000AF78607B688022FA
S2144007201A6000BF0C37BD465DF8047B704780B446
S21440073083B000AF78607B685B6843F001027B68FB
S2144007405A6000BF0C37BD465DF8047B704780B4E6
S21440075083B000AF78607B685B6823F002027B68FA
S2144007605A6000BF0C37BD465DF8047B704780B4C6
S21440077083B000AF78607B685B6823F004027B68D8
S2144007805A6000BF0C37BD465DF8047B704780B4A6
S21440079083B000AF78607B685B6803F00403002B8F
S2144007A001D0012300E0002318460C37BD465DF813
S2144007B0047B704780B483B000AF78607B685B682A
S2144007C043F010027B685A6000BF0C37BD465DF8A8
S2144007D0047B704780B483B000AF78607B685B680A
S2144007E023F080027B685A6000BF0C37BD465DF838
S2144007F0047B704780B483B000AF78600B467B8044
S2144008007A887B68DA6000BF0C37BD465DF8047BAB
S214400810704780B483B000AF78607B689B689BB2BB
S21440082018460C37BD465DF8047B704780B483B0ED
S21440083000AF78607B681B6903F00203002B01D091
S214400840012300E0002318460C37BD465DF8047BC4
S214400850704780B483B000AF78607B681A6940F216
S2144008600123134040F20122934201D1012300E0CC
S214400870002318460C37BD465DF8047B70470000E1
S21440088080B582B000AF78600B46FB70FB789BB2B9
S21440089019467868024B984700BF0837BD4680BD6A
S2144008A0F507400080B582B000AF78603960786860
S2144008B0044B98470346DAB23B681A7000BF0837C5
S2144008C0BD4680BD1308400080B582B000AF78605A
S2144008D07868104B984778680F4B984778680F4B66
S2144008E0984778680E4B984778680E4B9847002193
S2144008F078680D4B984778680C4B984778680C4B4F
S2144009009847002178680B4B984700BF0837BD468C
S21440091080BD00BFAD124000150740002F074000C5
S214400920B5074000D5074000E91240004F07400099
S2144009306F0740001D13400090B587B000AFF860C9
S214400940B9603B601346FB71204B984703461946F7
S21440095038681F4B98470346FB82BB6819680023DC
S2144009600022F8681B4CA047BB681B680822194643
S214400970F868194B9847BB681B68FA8AD2B2194682
S214400980F868164B9847BB681B6808221946F868F3
S214400990134B9847BB681968FB795B08DBB21A466D
S2144009A0F868104B9847BB681968FB7903F0010359
S2144009B0002B0CBF01230023DBB21A46F8680A4B13
S2144009C0984700BF1C37BD4690BD00BF010740009A
S2144009D05D154000F715400013154000991540007E
S2144009E06D144000CD1340001D14400080B582B009
S2144009F000AF786039607868104B98470346002B04
S214400A000AD03B681B680F2B14D83B681B681946F6
S214400A1078680B4B98470DE03B681B68032B09D85A
S214400A203B681B68012202FA03F3DB4319467868E9
S214400A30034B984700BF0837BD4680BD8F07400030
S214400A40E912400080B588B000AFF860B9607A60BF
S214400A5043F69823FB610023BB6121E043F69823CD
S214400A60FB6107E0FB695A1EFA61002B02D16FF06A
S214400A70020319E0F8680E4B98470346002BF1D066
S214400A80BA68BB6913441B78FB75FB7D1946F8684A
S214400A90084B9847BB690133BB617B68013B7B6071
S214400AA07B68002BDAD1002318462037BD4680BD30
S214400AB02D0840008108400080B588B000AFF8603F
S214400AC0B9607A6043F69823FB610023BB6138E047
S214400AD043F69823FB6107E0FB695A1EFA61002B38
S214400AE002D16FF0020330E0F8681A4B984703468D
S214400AF0002BF1D0FF21F868174B984743F6982310
S214400B00FB6107E0FB695A1EFA61002B02D16FF0C9
S214400B1002031AE0F868114B98470346002BF1D0C1
S214400B2007F117031946F8680D4B9847BA68BB6932
S214400B301344FA7D1A70BB690133BB617B68013B85
S214400B407B607B68002BC3D1002318462037BD4608
S214400B5080BD00BF2D08400081084000530840007B
S214400B60A508400080B483B000AF78607B6801225F
S214400B701A6000BF0C37BD465DF8047B704780B4F2
S214400B8083B000AF786039607B683A685A6100BFCE
S214400B900C37BD465DF8047B7047000090B583B0C7
S214400BA000AF06200A4B9847002303222C21094811
S214400BB0094CA04700237B6002E07B6801337B60E2
S214400BC07B68FE2BF9D900BF0C37BD4690BD00BFF1
S214400BD0E11F4000008000404D13400080B584B0C7
S214400BE000AF786039600620094B98473A687968C4
S214400BF00848094B98470023FB6002E0FB68013336
S214400C00FB60FB68FE2BF9D900BF1037BD4680BDA0
S214400C10B11F400000800040450A400090B587B0B4
S214400C2000AF0346B9607A60FB730620144B9847C2
S214400C30FB7B99B2002303221248134CA0470023A3
S214400C407B6102E07B6901337B617B69FE2BF9D9CE
S214400C507B68002B10D006200C4B98477A68B96802
S214400C6008480B4B984700237B6102E07B690133C1
S214400C707B617B695E2BF9D900BF1C37BD4690BDB2
S214400C80E11F4000008000404D134000B11F40006F
S214400C90450A400080B584B000AF0023BB60812386
S214400CA0BB7000237B700323FB6048E0BB1C012223
S214400CB01946FB20264B9847BB780133DBB2BB7006
S214400CC000237B6002E07B6801337B607B68FE2B01
S214400CD0F9D900220021D3201D4B984706201D4BF2
S214400CE09847FB1C012219461B481C4B984700237B
S214400CF07B6002E07B6801337B607B68FE2BF9D922
S214400D00FB781A46FB68013BDB0002FA03F31A46FF
S214400D10BB681343BB607B1C01221946FB200C4B6F
S214400D20984700237B6002E07B6801337B607B68EA
S214400D3040F6FE729342F7D9FB68013BFB60FB68C6
S214400D40002BB3D1BB6818461037BD4680BD00BFE8
S214400D501D0C4000B11F400000800040B90A400012
S214400D6080B485B000AF78600023FB600CE00023C1
S214400D70FB6002E0FB680133FB60FB68074A934276
S214400D80F8D9FB680133FB60FA687B689A42EED379
S214400D9000BF1437BD465DF8047B70479F86010050
S214400DA080B487B000AFF860B9607A603B60FB689B
S214400DB01B68B3F5A07F03D3FB6840F23F121A606E
S214400DC07B681B68B3F5A07F03D37B6840F23F1275
S214400DD01A60BB681B68B3F5F07F03D3BB6840F26C
S214400DE0DF121A603B681B68B3F5F07F03D33B689D
S214400DF040F2DF121A60FB681A687B681B689A42EA
S214400E0009D9FB681B687B617B681A68FB681A60B7
S214400E107B687A691A60BB681A683B681B689A42A6
S214400E2009D9BB681B687B613B681A68BB681A6057
S214400E303B687A691A6000BF1C37BD465DF8047B84
S214400E407047000080B584B000AF0346FB71FB7965
S214400E50002B02D0E823FB7301E04823FB7307F125
S214400E600F03012219463620024B984700BF103721
S214400E70BD4680BD1D0C400090B587B000AF04460F
S214400E80084611461A462346FB800346BB800B465F
S214400E907B8013463B8000237B6104237B61FB8879
S214400EA07B827A88FB8813449BB2013B9BB23B8291
S214400EB0BB88FB813A88BB8813449BB2013B9BB2FC
S214400EC0BB8107F112035B783B7207F112031B7874
S214400ED07B7207F110035B78BB7207F110031B7837
S214400EE0FB7207F108037A6919462A20134B984784
S214400EF0002200210020114B984707F10E035B7833
S214400F003B7207F10E031B787B7207F10C035B788C
S214400F10BB7207F10C031B78FB7207F108037A6972
S214400F2019462B20054B9847002200210020034BF2
S214400F30984700BF1C37BD4690BD00BF1D0C400003
S214400F4090B589B002AF78600323FB604348444BBA
S214400F50984707F10C0100230093424B03223F4879
S214400F60414CA047002203213C48404B984707F19C
S214400F700C03194639483E4B984738483D4B9847EE
S214400F80012136483C4B98470022002101203B4B2C
S214400F909847C8203A4B9847002200211120374BEB
S214400FA09847C820364B9847364B984778617B69B8
S214400FB049F28842934201D001234AE04823FB7419
S214400FC007F113030122194636202C4B984764201C
S214400FD02B4B98470423FB7407F113030122194651
S214400FE0CF20264B98476420254B98470623FB7412
S214400FF007F11303012219463A20204B98476420F4
S2144010001F4B98470022002113201C4B9847642012
S2144010101B4B98471C4B98476420194B9847002019
S2144010201A4B98476420164B98477B681B689AB2C1
S2144010307B685B689BB200210020154CA0477B680C
S2144010409B681846134B984700210020124B984740
S214401050002318461C37BD4690BD00BF00800040A8
S214401060C9084000002D3101390940006D14400088
S214401070ED094000650B40007F0B40001D0C400012
S214401080610D4000950C40009D104000450E40000C
S214401090790E4000B51040000911400080B500AF01
S2144010A0002200212920024B984700BF80BD00BF88
S2144010B01D0C400080B485B000AF78600023FB6014
S2144010C016E0FB685A1CFA607A68120CD1B20D4AD8
S2144010D0D154FB685A1CFA607A68120AD1B2094A9F
S2144010E0D154FB685A1CFA607A68D1B2054AD1548A
S2144010F0FB68B3F5707FE4D300BF1437BD465DF898
S214401100047B70475C04402080B584B000AF034643
S2144011100A46FB801346BB800023FB600423FB602B
S214401120BB1D5B783B72BB1D1B787B72BB1D5B781F
S214401130BB72BB1D1B78FB7207F10803FA681946A1
S2144011402A20114B98470022002100200E4B98473A
S2144011503B1D5B783B723B1D1B787B723B1D5B786F
S214401160BB723B1D1B78FB7207F10803FA681946F1
S2144011702B20054B9847002200210020024B984721
S21440118000BF1037BD4680BD1D0C400090B587B0EF
S21440119000AFF860B9607A603B603B463A1D07F1A5
S2144011A0080107F10C002A4CA047FB6898B2BB68C0
S2144011B099B27B689AB2FB689BB2D31A9BB2013352
S2144011C09CB23B689AB2BB689BB2D31A9BB20133BF
S2144011D09BB222461F4CA0471F4B98477A68FB6835
S2144011E0D31A01333968BA688A1A013202FB03F30C
S2144011F03B613B69194AA2FB03231B0A7B6104E05F
S2144012004FF470711648174B98477B695A1E7A619F
S214401210002BF5D13969114BA3FB01231A0A13465B
S2144012209B0013449B01CA1A13465B00134419469D
S2144012300B480C4B98474FF4F0734FF4A0720021C4
S2144012400020044CA04700BF1C37BD4690BD00BFE1
S214401250A10D4000790E40009D0B4000CDCCCCCC7B
S2144012605C044020DD0B400080B483B000AF786063
S2144012707B685B6803F00203002B01D0012300E08B
S214401280002318460C37BD465DF8047B70470000C7
S21440129080B582B000AF78607868034B984700BF4F
S2144012A00837BD4680BD00BFC924400080B582B027
S2144012B000AF78607B68094A934203D11520084BFB
S2144012C0984706E07B68074A934202D12A20044B9F
S2144012D0984700BF0837BD4680BD00BF008000402D
S2144012E0911240000080054080B483B000AF786023
S2144012F039607B685B6823F470227B685A607B6841
S2144013005A683B681B0403F470231A437B685A6090
S21440131000BF0C37BD465DF8047B704780B483B091
S21440132000AF786039607B685B6823F07F427B68FB
S2144013305A607B685A683B681B061A437B685A604B
S21440134000BF0C37BD465DF8047B704780B584B05F
S21440135000AF7860084611461A4603467B800B4627
S2144013607B7013463B7043F69823FB6006E0FB68B1
S2144013705A1EFA60002B01D1012320E07B681B69CE
S21440138003F00203002BF2D078680F4B98470346D1
S214401390002B0ED07A887B781B0403F4702313430B
S2144013A0BB603B78002B06D0BB6843F08073BB60C5
S2144013B001E07B88BB607B68BA68DA600023184629
S2144013C01037BD4680BD00BF6912400080B485B06E
S2144013D000AFF860B9607A607B68002B0CD0FB6881
S2144013E0BA680C3253F8223043F00101FB68BA6801
S2144013F00C3243F822100BE0FB68BA680C3253F804
S214401400223023F00101FB68BA680C3243F8221000
S21440141000BF1437BD465DF8047B704780B485B086
S21440142000AFF860B9607A607B68002B0CD0FB6830
S214401430BA680C3253F8223043F00201FB68BA68AF
S2144014400C3243F822100BE0FB68BA680C3253F8B3
S214401450223023F00201FB68BA680C3243F82210AF
S21440146000BF1437BD465DF8047B704780B485B036
S21440147000AFF860B9607A607B68042B18D1FB68CF
S214401480BA680C3253F8223023F00801FB68BA6879
S2144014900C3243F82210FB68BA680C3253F82230FC
S2144014A043F00401FB68BA680C3243F822102AE085
S2144014B07B68002B18D1FB68BA680C3253F8223090
S2144014C023F00801FB68BA680C3243F82210FB6828
S2144014D0BA680C3253F8223023F00401FB68BA682D
S2144014E00C3243F822100EE07B68082B0BD1FB68C9
S2144014F0BA680C3253F8223043F00801FB68BA68E9
S2144015000C3243F8221000BF1437BD465DF8047B0A
S214401510704780B485B000AFF860B9607A60FB6809
S214401520BA680C3253F8223023F0F001FB68BA68F0
S2144015300C3243F82210FB68BA680C3253F822206B
S2144015407B6842EA0301FB68BA680C3243F8221013
S21440155000BF1437BD465DF8047B704780B485B045
S21440156000AF786039603A687B6813445A1E7B68DF
S214401570B2FBF3F3FB60FB68002B02DDFB68FF2B3E
S21440158002DD4FF0FF3301E0FB681BB2184614370C
S214401590BD465DF8047B704780B485B000AFF86008
S2144015A0B9601346FB71FB79002B02D14FF0FF3335
S2144015B01BE0FB68BA680C3253F8223023F47F41B4
S2144015C0FB68BA680C3243F82210FB68BA680C32E3
S2144015D053F82220FB791B029BB242EA0301FB68C8
S2144015E0BA680C3243F82210002318461437BD461A
S2144015F05DF8047B704780B485B000AFF860B96092
S21440160011461A460B46FB711346BB71FB68BA6817
S2144016100C3253F8223099B2FB68BA680C3243F861
S2144016202210FB68BA680C3253F82220FB791B0460
S21440163003F47F03B97909060B4342EA0301FB68CA
S214401640BA680C3243F8221000BF1437BD465DF826
S214401650047B704780B582B000AF78607B68072B0C
S21440166031D801A252F823F0C51640008916400032
S2144016709116400099164000A1164000A916400059
S214401680B1164000BB1640000020114B98471AE0A8
S21440169001200F4B984716E000200E4B984712E06B
S2144016A010200C4B98470EE020200A4B98470AE043
S2144016B03E210020084B984705E03E210120064B7E
S2144016C0984700E000BF00BF0837BD4680BD00BF5A
S2144016D00523400071234000E123400080B582B0DE
S2144016E000AF78607B68072B26D801A252F823F01B
S2144016F011174000151740001517400027174000E7
S214401700271740002717400027174000271740009C
S214401710012312E00B4B98470346002B14BF0123CE
S2144017200023DBB209E0084B98470346002B14BF62
S21440173001230023DBB200E0002318460837BD46ED
S21440174080BD00BF3D2340005924400080B483B094
S21440175000AF78607B68072B25D801A252F823F0AB
S21440176081174000871740008D17400093174000B0
S214401770971740009B1740009F174000A317400054
S2144017804FF4FA4310E04FF400430DE04FF40043AB
S2144017900AE0084B08E0084B06E0084B04E0074B1D
S2144017A002E0064B00E0002318460C37BD465DF8C5
S2144017B0047B704700093D0000127A00001BB7000A
S2144017C080B582B000AF0346FB7100BFFB79184678
S2144017D0054B9847034683F00103DBB2002BF5D157
S2144017E000BF0837BD4680BDDD16400080B586B0D8
S2144017F000AFF8607A603B600B46FB727B68002B5C
S21440180007D13B68002B04D1FB684FF470021A6086
S21440181019E0FB7A18460E4B984702467B68B2FBA7
S214401820F3F37B617B693A6802FB03F37B613B68B9
S214401830013B1A04074B13407A68D2B2134343F471
S2144018407C52FB681A6000BF1837BD4680BD00BF9B
S2144018504D1740000000FF0780B582B000AF7860AB
S21440186039603B68002B08D1094B9847094A7B688A
S2144018701B6843F00053936205E0064A7B681B688A
S21440188043F48033D36100BF0837BD4680BD00BFF8
S2144018907524400000060E4080B582B000AF7860E8
S2144018A07B68002B03D1054B9847034602E0044B68
S2144018B09847034618460837BD4680BD91244000E9
S2144018C0AD24400080B582B000AF0346FB71FB7983
S2144018D0033B042B08D8FB791846064B9847FB7900
S2144018E01846054B984700E000BF00BF0837BD4686
S2144018F080BD00BF55164000C117400080B582B07D
S21440190000AF786000BF7868044B98470346002BCA
S214401910F9D0002318460837BD4680BD99184000C8
S21440192080B500AF0620054B9847024613469B00FD
S21440193013449A001344184680BD00BF4D1740001C
S21440194080B500AF024B98470346184680BD00BF9F
S2144019502119400090B583B000AF1348134B984709
S2144019600620134B9847381D192301220621114C97
S214401970A0473B1D002118460F4B984700200F4BB1
S214401980984702200E4B984700200E4B98470E4B28
S21440199098470E4B984703461846044B984700BF57
S2144019A00C37BD4690BD00BF000E2707F52B400004
S2144019B0C5184000ED17400059184000FD1840007B
S2144019C005224000812240008D2A400041194000F7
S2144019D080B582B000AF78607868034B984700BF08
S2144019E00837BD4680BD00BFC924400080B500AF63
S2144019F00A20084B98470B20064B98470C20054B6F
S214401A0098471020034B98471120024B984700BF39
S214401A1080BD00BFD119400080B489B000AF786067
S214401A207B68FB61FB69BB61BB695A09FB697B61EB
S214401A307B6903F01F03012101FA03F33A61FB605F
S214401A403B69BB60BA68064B13445B021A46FB68A8
S214401A50536000BF2437BD465DF8047B704700BF27
S214401A600707200080B48DB000AF786039607B688F
S214401A70FB623B68BB62FB6A7B627B6A5A09FB6A15
S214401A803B623B6A03F01F03012101FA03F3FA614C
S214401A90BB61BB6A7B61FB693B613A69374B134468
S214401AA05B02FB607B6903F00803002B03D0FB68F6
S214401AB0BA695A6602E0FB68BA691A667B6903F03F
S214401AC01003002B04D0FB68BA69C3F8942003E0E7
S214401AD0FB68BA69C3F890207B6903F02003002BAB
S214401AE003D0FB68BA691A6502E0FB68BA695A65B2
S214401AF07B6903F0C003002B03D0FB68BA691A6207
S214401B0002E0FB68BA695A627B6903F08003002BE7
S214401B1004D0FB68BA69C3F8842003E0FB68BA695E
S214401B20C3F880207B6903F00103002B06D0FB68D6
S214401B301A6FBB691A43FB681A6706E0FB681A6FA0
S214401B40BB69DB431A40FB681A677B6903F00203F4
S214401B50002B06D0FB685A6FBB691A43FB685A676E
S214401B6006E0FB685A6FBB69DB431A40FB685A675E
S214401B7000BF3437BD465DF8047B7047070720003A
S214401B8080B48DB000AF78600B46FB707B68FB621C
S214401B90FB7887F82B30FB6A7B627B6A3B623B6A4A
S214401BA05B09FB61FA69174B13445B02BB6197F80C
S214401BB02B30012B09D1FB6A7B617B6903F01F0345
S214401BC001229A40BB691A610CE097F82B30002B33
S214401BD008D1FB6A3B613B6903F01F0301229A4030
S214401BE0BB695A61FB6AFB60FB6803F01F03012276
S214401BF09A40BB69C3F8A02000BF3437BD465DF8A5
S214401C00047B70470707200080B48BB000AF786035
S214401C100B46FB707B687B62FB7887F823307B6AD9
S214401C20FB61FB69BB61BB695B097B617A69104BF1
S214401C3013445B023B6197F82330002B09D07B6A44
S214401C40FB60FB6803F01F0301229A403B691A635E
S214401C5008E07B6ABB60BB6803F01F0301229A4022
S214401C603B695A6300BF2C37BD465DF8047B70471E
S214401C700707200080B48DB000AF78600B46FB703D
S214401C807B68FB62FB7887F82B30FB6A7B627B6A5B
S214401C905A09FB6A3B623B6A03F01F03012101FAC3
S214401CA003F3FA61BB6197F82B30FB75FB693B6128
S214401CB03A69234B13445B02FB60FB7D013B032BDD
S214401CC02ED801A252F823F0FD1C40000F1D400004
S214401CD0D91C4000EB1C4000FB68BA69C3F8C4201E
S214401CE0FB68BA69C3F8D0201FE0FB68BA69C3F83E
S214401CF0C420FB68BA69C3F8D42016E0FB68BA690A
S214401D00C3F8C020FB68BA69C3F8D0200DE0FB6872
S214401D10BA69C3F8C020FB68BA69C3F8D42004E0A7
S214401D20FB68BA69C3F8B42003E0FB68BA69C3F835
S214401D30B02000BF3437BD465DF8047B704700BF17
S214401D400707200080B400AFBFF34F8FBFF36F8FFD
S214401D500C4A0C4BD3F8903223F00103C2F8903271
S214401D60084A084BD3F8943223F00103C2F8943261
S214401D70BFF34F8FBFF36F8F00BFBD465DF8047B48
S214401D80704700BF00ED00E080B500AF1C4B4FF43D
S214401D9000425A601B4B1C4A5A601A4B1B4A5A60F8
S214401DA01B4B98471B4B9847012148201A4B984796
S214401DB001214820194B984700210B20164B984785
S214401DC088210B20164B984702210B20154B98472D
S214401DD000211520124B98471520134B9847134A5D
S214401DE0124BD3F8143143F01003C2F814310321D8
S214401DF024200B4B984724200B4B984700BF80BDB0
S214401E0050180E40000C0E400C08005A0C07005AA2
S214401E10451D4000ED194000811B4000091C400054
S214401E20651A4000751C4000191A400000800840A2
S214401E3080B485B000AFF860B9607A607B68002BEC
S214401E4003D0FB68BA685A6602E0FB68BA681A664E
S214401E5000BF1437BD465DF8047B704780B584B03C
S214401E6000AFF860B9607A60B968F868194B98476F
S214401E707B6803F001031A46B968F868164B984722
S214401E807B6803F00A03002B03D0FB68BA681A622B
S214401E9002E0FB68BA685A627B6803F00203002BD4
S214401EA004D0FB68BA68C3F8802008E07B6803F07B
S214401EB00803002B03D0FB68BA68C3F88420FB688D
S214401EC0BA685A61FB68BA681A6000BF1037BD46E8
S214401ED080BD00BF651F4000311E400080B485B005
S214401EE000AFF860B9607A607B6803F01003002B9F
S214401EF020D0FB68BA68C3F8B0207B6803F02003A4
S214401F00002B04D0FB68BA68C3F8D42003E0FB6813
S214401F10BA68C3F8D0207B6803F04003002B04D097
S214401F20FB68BA68C3F8C02008E0FB68BA68C3F824
S214401F30C42003E0FB68BA68C3F8B42000BF143777
S214401F40BD465DF8047B704780B483B000AF7860D0
S214401F5039607B683A681A6400BF0C37BD465DF846
S214401F60047B704780B483B000AF786039607B688C
S214401F703A685A6400BF0C37BD465DF8047B70472C
S214401F8080B483B000AF78607B68DB6C18460C3753
S214401F90BD465DF8047B704780B483B000AF786080
S214401FA07B689B6C18460C37BD465DF8047B7047D3
S214401FB080B584B000AF78607868084B9847F86082
S214401FC07B6803F01F03012202FA03F31A46FB68FC
S214401FD01A6300BF1037BD4680BD00BF11204000C9
S214401FE080B584B000AF78607868084B9847F86052
S214401FF07B6803F01F03012202FA03F31A46FB68CC
S2144020005A6300BF1037BD4680BD00BF1120400058
S21440201080B485B000AF78607B685A09054B13449E
S2144020205B02FB60FB6818461437BD465DF8047BD0
S214402030704700BF0707200080B584B000AF7860C7
S21440204039607868264B9847F8607868254B9847FB
S2144020500246FB681340FB60FB68002B3CD0002325
S214402060BB6034E0204ABB681B0113441A683B68D7
S2144020709A4226D11C4ABB681B01134404331A6893
S214402080FB681340002B1CD0174ABB681B01134447
S2144020900C331B681449BA6812010A441068124986
S2144020A0BA6812010A4404321268114698470E4A2A
S2144020B0BB681B01134404331B68DB43FA681340B8
S2144020C0FB60BB680133BB60BB68062B03D8FB686C
S2144020D0002BC7D100E000BF00BF1037BD4680BD13
S2144020E0811F4000991F40001C08402080B586B0E4
S2144020F000AFF860B9607A603B60214B1B68062BE6
S21440210001D9012338E00023FB7511E0FB7D1B015C
S2144021101C4A13443B613B691A68BB689A4204D127
S2144021203B695A687B689A4208D0FB7D0133FB7551
S214402130FA7D134B1B689A42E8D900E000BF3B6922
S214402140BA681A603B697A685A603B693A689A602E
S2144021503B693A6ADA60FA7D094B1B6801339A425A
S21440216004D1074B1B680133054A13603A68796807
S214402170F868054B9847002318461837BD4680BD7B
S2144021808C0840201C084020DD1E400080B500AF73
S2144021900A210248024B984700BF80BD000E0E4001
S2144021A03920400080B500AF0B210248024B9847CB
S2144021B000BF80BD00100E403920400080B500AF03
S2144021C00C210248024B984700BF80BD00120E40CB
S2144021D03920400080B500AF10210248024B984796
S2144021E000BF80BD00140E403920400080B500AFCF
S2144021F011210248024B984700BF80BD00160E4092
S2144022003920400080B483B000AF78607B68013BE3
S214402210032B1AD801A252F823F000BF2D2240000B
S214402220332240003B2240004322400000237B6094
S2144022300EE04FF480737B600AE04FF440737B609F
S21440224006E04FF400737B6002E000237B6000BF33
S2144022500A490A4B1B6B23F440727B6813430B639B
S21440226000BF064B9B6E03F00803002BF9D000BF5F
S2144022700C37BD465DF8047B704700BF00060E4035
S21440228080B485B000AF78601D491D4B1B6B23F0B2
S21440229070027B6813430B634FF48053FB6007E088
S2144022A0FB68002B01D1012323E0FB68013BFB6068
S2144022B0134B9B6E03F00803002BF1D0104A104BD3
S2144022C01B6B23F0030343F0020313634FF4805366
S2144022D0FB6007E0FB68002B01D1012309E0FB68A7
S2144022E0013BFB60064B9B6E03F00803002BF1D0CE
S2144022F0002318461437BD465DF8047B704700BF80
S21440230000060E4080B483B000AF78607B68012B37
S21440231005D10749064B9A68064B13438B60044B1E
S214402320054A1A6000BF0C37BD465DF8047B70470F
S21440233010180E40000010A5080000A580B400AF9D
S214402340094B5B6903F08003002B07D0074B9B6E5D
S21440235003F08003002B01D0012300E00023184641
S214402360BD465DF8047B704710180E4000060E40D0
S21440237080B483B000AF78601549154B1A6A154B88
S21440238013430B6200BF124B9B6E03F40033002BCB
S214402390F9D00F490E4B1A6A0F4B13407A68134315
S2144023A043F45C130B6200BF094B9B6E03F400338F
S2144023B0002BF9D00649064B1A6A084B134043F4E3
S2144023C05C130B6200BF0C37BD465DF8047B70475C
S2144023D000060E40080037008FFFC8FFFFFFC8FE0C
S2144023E080B483B000AF786039607B68002B08D03B
S2144023F01349134B1B6A134A1A40134B13430B6281
S21440240018E00F490E4B1A6A104B13403A681202F6
S21440241092B21A430E4B13430B6200BF084B9B6E9F
S21440242003F00103002BF9D00549054B1A6A094B06
S21440243013430B6200BF0C37BD465DF8047B704704
S21440244000060E40FCFFC8FE02003701FCFFC8FF36
S214402450010037000000370180B400AF044B9B6E8C
S21440246003F480331846BD465DF8047B704700BFD2
S21440247000060E4080B400AF044B4FF000529A6204
S21440248000BFBD465DF8047B704700BF00060E40A7
S21440249080B400AF044B9B6E03F002031846BD4663
S2144024A05DF8047B704700BF00060E4080B400AF66
S2144024B0044B9B6E03F040031846BD465DF8047B14
S2144024C0704700BF00060E4080B485B000AF78600D
S2144024D00B4A7B6803F07F03C2F80C31084BD3F8F5
S2144024E00C3143F01023FB60054AFB68C2F80C3100
S2144024F0002318461437BD465DF8047B704700BF7E
S21440250000060E4080B483B000AF7860044A7B6813
S214402510136000BF0C37BD465DF8047B704700BFB4
S2144025200400402080B483B000AF204B1B6F7B601C
S2144025307B6823F4C0037B607B6843F480037B6046
S2144025401A4A7B6813671949184B1A6A184B134383
S2144025500B6200BF154B9B6E03F00803002BF9D0AF
S21440256000237B6003E000BF7B6801337B607B68B1
S214402570B3F5FA7FF7D300BF0C4B1B6A03F0080392
S214402580002BF9D0094B1B6F7B607B6823F4C0039C
S2144025907B607B6843F480037B60044A7B681367F8
S2144025A000BF0C37BD465DF8047B704700060E4002
S2144025B00400370090B599B000AF78607B68013B67
S2144025C0042B00F2A58101A252F823F0E125400039
S2144025D0E12540000126400001264000EF2840004B
S2144025E0724A724B1B6923F004031361704B01223D
S2144025F01A70BFF35F8F62B6BFF34F8F30BF87E16D
S2144026007B68032B03D100206A4B984703E04FF4C6
S2144026100010684B984772B6BFF35F8F644B00223A
S2144026201A70654B01221A707B68042B0CBF01237D
S2144026300023DAB207F11C033B6407F11803FB637F
S21440264007F11403BB6307F110037B6307F10C0328
S2144026503B63134687F82F30584B1B6ABB62574B79
S2144026601B6B7B62564B1B683B623B6C002B02D05D
S2144026703B6CBA6A1A60FB6B002B03D04F4B9A6ACE
S214402680FB6B1A60BB6B002B02D0BB6B00221A6040
S2144026907B6B002B02D07B6B7A6A1A603B6B002BFD
S2144026A002D03B6B3A6A1A604449BA6A454B1343B8
S2144026B00B627B6A03F00303012B0ED97B6A23F07F
S2144026C0030343F001037B623C4A7B6A13633B4B44
S2144026D09B6E03F00803002BF9D07B6A03F070036F
S2144026E0002B0CD07B6A23F070037B62334A7B6AF4
S2144026F01363324B9B6E03F00803002BF9D0324B2A
S21440270098472E4B9B6E03F40033002BF9D02B4991
S2144027102A4B1A6A2D4B134043F45C130B62274B2B
S2144027209B6E03F48033002BF9D0254A3B6A23F492
S2144027307063136097F82F30002B07D01F491F4B4C
S2144027401A6A234B134043F45C130B62184B012266
S2144027501A70BFF35F8F62B61E4B984772B6BFF3D0
S2144027605F8F134B00221A70FC69B86979693A6921
S214402770FB68FC65B86579653A65FB640023BB6415
S214402780FB6D03F00203002B2CD00C490B4B1B6A4D
S214402790114A1A40114B13430B620849074B1A6AF9
S2144027A00F4B134043F45C130B624EE000ED00E029
S2144027B000004020052540009008402000060E40BE
S2144027C0000C0E400800370075244000FFFFC8FE8E
S2144027D0FEFFC8FF25254000FCFFC8FE020037016B
S2144027E087FFC8FFFB6D03F00103002B2DD04A4B3B
S2144027F01B6A03F00103002B0DD14749464B1B6A69
S214402800464A1A40464B13430B62434B9B6E03F0BB
S2144028100103002BF9D0404B1B6A03F08073002B5A
S2144028200BD13D493C4B1A6A3E4B13430B623A4B25
S2144028309B6E03F48033002BF9D03749364B1A6A27
S214402840394B134043F45C130B62BA6D374B13405D
S214402850002B08D0304ABB6D43F000539362BB6CEC
S21440286043F00203BB643B6D03F00303022B05D128
S214402870294B9B6E03F00203002BF9D0264B1B6BB3
S2144028807B6425497B6C23F070023B6D03F070033C
S21440289013430B63204B9B6E03F00803002BF9D0C9
S2144028A0234AFB6C13601C4A3B6D13631A4B9B6EAA
S2144028B003F00803002BF9D0174B9A6EBB6C1340FD
S2144028C0002BF9D01B4B00221A701B4B1B68002BA9
S2144028D005D0194B1B689847174B00221A60174BB8
S2144028E001221A70BFF35F8F62B600BF10E0144A31
S2144028F0134B1B6943F004031361124B124A1A60D0
S2144029000E4B01221A70BFF35F8F62B630BF00BF16
S21440291000BF6437BD4690BD00060E40FCFFC8FFB2
S214402920010037000000370187FFC8FF0000FF079F
S214402930000C0E40900840209408402000004020A4
S21440294000ED00E010180E40040000A580B483B0EF
S21440295000AFEFF310837B607B68002B0CBF012336
S2144029600023DBB23B6072B6BFF35F8F044B00229E
S2144029701A703B6818460C37BD465DF8047B7047B6
S2144029800000402080B483B000AF78607B68002BA6
S21440299014BF01230023DBB218460C37BD465DF852
S2144029A0047B704780B582B000AF78607868074B8C
S2144029B098470346002B05D0054B01221A70BFF3FB
S2144029C05F8F62B600BF0837BD4680BD8529400090
S2144029D00000402080B584B000AF1E4BFB601E4B0D
S2144029E0BB60FA68BB689A420CD007E0BB681A1D09
S2144029F0BA60FA68111DF96012681A60BB68174A17
S214402A009342F3D3164BBB6004E0BB681A1DBA6012
S214402A1000221A60BB68134A9342F6D3124BFB60FF
S214402A20124AFB6823F07F039360114B9847786007
S214402A30104A104B1B6843F470031360BFF34F8F6C
S214402A40BFF36F8F78680C4B98470C4B98470C4BEE
S214402A509847FEE73C2E4000000040203C044020C3
S214402A603C044020CC0840200000400000ED00E040
S214402A704D29400088ED00E0A5294000A52C4000E7
S214402A801D06400080B400AFFEE7000080B400AFF3
S214402A90524B1B6B03F00303012B14D0012B02D3C4
S214402AA0022B38D07AE04E4B5B6903F08003002B54
S214402AB004D04C4B4FF400421A606FE0494B4FF441
S214402AC0FA421A606AE0454B1B6A03F08073002B9B
S214402AD003D0444B444A1A6060E0424B434A1A6073
S214402AE03E4B1B6A03F07003102B04D0202B08D0FB
S214402AF0002B0ED00EE03B4B1B685B00394A136040
S214402B0008E0384B1A6813465B001344354A136096
S214402B1000E000BF42E0314B1B6A03F08073002B9D
S214402B2003D0304B304A1A601CE02E4B2F4A1A60B6
S214402B302A4B1B6A03F07003102B04D0202B08D0BE
S214402B40002B0ED00EE0274B1B685B00254A136017
S214402B5008E0244B1A6813465B001344214A13606E
S214402B6000E000BF1D4B1B6B03F00303022B14D188
S214402B701A4B9B6A1B0CC3F30A030133194A1268AB
S214402B8002FB03F3174A1360144B9B6ADBB2154AE9
S214402B901268B2FBF3F3134A136000BF0F4B1B6B74
S214402BA003F07003702B08D10E4B1B68104AA2FB33
S214402BB003235B080B4A13600AE0084B1B6B1B0998
S214402BC003F00703074A126822FA03F3054A136024
S214402BD000BFBD465DF8047B704700BF00060E4050
S214402BE010180E4008004020001BB70000093D00AA
S214402BF0ABAAAAAA80B483B000AF78607B681D4AAF
S214402C00934204D81C4B4FF080621A602BE07B68DE
S214402C101A4A934203D8184B194A1A6023E07B6835
S214402C20184A934203D8144B174A1A601BE07B6835
S214402C30164A934203D8104B154A1A6013E07B6835
S214402C40144A934204D80C4B4FF004221A600AE010
S214402C507B68114A934203D8074B104A1A6002E039
S214402C60054B0F4A1A6000BF0C37BD465DF8047B23
S214402C70704700BFBFF35E01000C0E407FE7BD0209
S214402C80000100043FDB1C0400020004FFCE7B056D
S214402C9000030004BFC2DA067FB639080005000408
S214402CA00006000470B50F4E0F4D761BB61018BFC9
S214402CB0002405D0013455F8043B9847A642F9D184
S214402CC00A4E0B4D761B00F0A7F8B61018BF00242E
S214402CD006D0013455F8043B9847A642F9D170BD5A
S214402CE070BD00BF242E4000242E40002C2E4000F5
S214402CF0242E4000024B13B1024800F005B870473E
S214402D0000000000152D4000002301461A461846D4
S214402D1000F01EB838B50A4C0A4D641BA4100AD001
S214402D2004F18043013B05EB8305013C55F804392B
S214402D309847002CF9D1BDE8384000F077B800BF7E
S214402D403C2E4000382E4000704700BF704700BF02
S214402D502DE9F8432C4D0646286898460F4691467E
S214402D60FFF7F2FF294B1C68D4F84831002B3ED0C1
S214402D705A681F2A1CDC02F1010E76B103EB820171
S214402D800124C1F88890D3F8880194402043022E4D
S214402D90C3F88801C1F8088123D00232C3F804E0A2
S214402DA0286843F82270FFF7D1FF0020BDE8F8837B
S214402DB0174B0BB34FF4C870AFF300800346D8B13F
S214402DC0D4F848210260002141600A46C4F8480110
S214402DD04FF0010EC0F88811C0F88C11002EDCD0E0
S214402DE0CCE7D3F88C110C43C3F88C41D5E704F5F7
S214402DF0A673C4F84831BBE72868FFF7A7FF4FF033
S214402E00FF30BDE8F88300BF38044020142E400051
S214402E100000000010004020F8B500BFF8BC08BC19
S214402E209E467047F52C40008D014000F8B500BF27
S210402E30F8BC08BC9E4670476901400094
S214402E3C010000000000200000093D0000000000DA
S214402E4C00000000FC02402064034020CC034020DD
S214402E5C0000000000000000000000000000000021
S214402E6C0000000000000000000000000000000011
S214402E7C0000000000000000000000000000000001
S214402E8C00000000000000000000000000000000F1
S214402E9C00000000000000000000000000000000E1
S214402EAC00000000000000000000000000000000D1
S214402EBC00000000000000000000000000000000C1
S214402ECC00000000000000000000000000000000B1
S214402EDC00000000000000000000000000000000A1
S214402EEC0000000000000000010000000000000090
S214402EFC0E33CDAB34126DE6ECDE05000B00000055
S214402F0C0000000000000000000000000000000070
S214402F1C0000000000000000000000000000000060
S214402F2C0000000000000000000000000000000050
S214402F3C0000000000000000000000000000000040
S21040326C0000000000000000A808402001
S8044029D5BD
